{
  "_format": "hh-sol-artifact-1",
  "contractName": "NFTFund",
  "sourceName": "contracts/NFTFund.sol",
  "abi": [
    {
      "inputs": [],
      "stateMutability": "nonpayable",
      "type": "constructor"
    },
    {
      "inputs": [
        {
          "internalType": "address",
          "name": "sender",
          "type": "address"
        },
        {
          "internalType": "uint256",
          "name": "tokenId",
          "type": "uint256"
        },
        {
          "internalType": "address",
          "name": "owner",
          "type": "address"
        }
      ],
      "name": "ERC721IncorrectOwner",
      "type": "error"
    },
    {
      "inputs": [
        {
          "internalType": "address",
          "name": "operator",
          "type": "address"
        },
        {
          "internalType": "uint256",
          "name": "tokenId",
          "type": "uint256"
        }
      ],
      "name": "ERC721InsufficientApproval",
      "type": "error"
    },
    {
      "inputs": [
        {
          "internalType": "address",
          "name": "approver",
          "type": "address"
        }
      ],
      "name": "ERC721InvalidApprover",
      "type": "error"
    },
    {
      "inputs": [
        {
          "internalType": "address",
          "name": "operator",
          "type": "address"
        }
      ],
      "name": "ERC721InvalidOperator",
      "type": "error"
    },
    {
      "inputs": [
        {
          "internalType": "address",
          "name": "owner",
          "type": "address"
        }
      ],
      "name": "ERC721InvalidOwner",
      "type": "error"
    },
    {
      "inputs": [
        {
          "internalType": "address",
          "name": "receiver",
          "type": "address"
        }
      ],
      "name": "ERC721InvalidReceiver",
      "type": "error"
    },
    {
      "inputs": [
        {
          "internalType": "address",
          "name": "sender",
          "type": "address"
        }
      ],
      "name": "ERC721InvalidSender",
      "type": "error"
    },
    {
      "inputs": [
        {
          "internalType": "uint256",
          "name": "tokenId",
          "type": "uint256"
        }
      ],
      "name": "ERC721NonexistentToken",
      "type": "error"
    },
    {
      "inputs": [
        {
          "internalType": "address",
          "name": "owner",
          "type": "address"
        }
      ],
      "name": "OwnableInvalidOwner",
      "type": "error"
    },
    {
      "inputs": [
        {
          "internalType": "address",
          "name": "account",
          "type": "address"
        }
      ],
      "name": "OwnableUnauthorizedAccount",
      "type": "error"
    },
    {
      "anonymous": false,
      "inputs": [
        {
          "indexed": true,
          "internalType": "address",
          "name": "owner",
          "type": "address"
        },
        {
          "indexed": true,
          "internalType": "address",
          "name": "approved",
          "type": "address"
        },
        {
          "indexed": true,
          "internalType": "uint256",
          "name": "tokenId",
          "type": "uint256"
        }
      ],
      "name": "Approval",
      "type": "event"
    },
    {
      "anonymous": false,
      "inputs": [
        {
          "indexed": true,
          "internalType": "address",
          "name": "owner",
          "type": "address"
        },
        {
          "indexed": true,
          "internalType": "address",
          "name": "operator",
          "type": "address"
        },
        {
          "indexed": false,
          "internalType": "bool",
          "name": "approved",
          "type": "bool"
        }
      ],
      "name": "ApprovalForAll",
      "type": "event"
    },
    {
      "anonymous": false,
      "inputs": [
        {
          "indexed": false,
          "internalType": "uint256",
          "name": "_fromTokenId",
          "type": "uint256"
        },
        {
          "indexed": false,
          "internalType": "uint256",
          "name": "_toTokenId",
          "type": "uint256"
        }
      ],
      "name": "BatchMetadataUpdate",
      "type": "event"
    },
    {
      "anonymous": false,
      "inputs": [
        {
          "indexed": true,
          "internalType": "address",
          "name": "campaignOwner",
          "type": "address"
        },
        {
          "indexed": true,
          "internalType": "address",
          "name": "funder",
          "type": "address"
        },
        {
          "indexed": false,
          "internalType": "uint256",
          "name": "amount",
          "type": "uint256"
        }
      ],
      "name": "CampaignFunded",
      "type": "event"
    },
    {
      "anonymous": false,
      "inputs": [
        {
          "indexed": false,
          "internalType": "uint256",
          "name": "_tokenId",
          "type": "uint256"
        }
      ],
      "name": "MetadataUpdate",
      "type": "event"
    },
    {
      "anonymous": false,
      "inputs": [
        {
          "indexed": true,
          "internalType": "address",
          "name": "owner",
          "type": "address"
        },
        {
          "indexed": true,
          "internalType": "uint256",
          "name": "tokenId",
          "type": "uint256"
        },
        {
          "indexed": false,
          "internalType": "string",
          "name": "tokenURI",
          "type": "string"
        },
        {
          "indexed": false,
          "internalType": "uint256",
          "name": "price",
          "type": "uint256"
        }
      ],
      "name": "NFTCreated",
      "type": "event"
    },
    {
      "anonymous": false,
      "inputs": [
        {
          "indexed": true,
          "internalType": "address",
          "name": "previousOwner",
          "type": "address"
        },
        {
          "indexed": true,
          "internalType": "address",
          "name": "newOwner",
          "type": "address"
        },
        {
          "indexed": true,
          "internalType": "uint256",
          "name": "tokenId",
          "type": "uint256"
        },
        {
          "indexed": false,
          "internalType": "uint256",
          "name": "price",
          "type": "uint256"
        }
      ],
      "name": "NFTPurchased",
      "type": "event"
    },
    {
      "anonymous": false,
      "inputs": [
        {
          "indexed": true,
          "internalType": "address",
          "name": "previousOwner",
          "type": "address"
        },
        {
          "indexed": true,
          "internalType": "address",
          "name": "newOwner",
          "type": "address"
        }
      ],
      "name": "OwnershipTransferred",
      "type": "event"
    },
    {
      "anonymous": false,
      "inputs": [
        {
          "indexed": true,
          "internalType": "address",
          "name": "recipient",
          "type": "address"
        },
        {
          "indexed": false,
          "internalType": "uint256",
          "name": "rewardTokenId",
          "type": "uint256"
        }
      ],
      "name": "RewardTokenClaimed",
      "type": "event"
    },
    {
      "anonymous": false,
      "inputs": [
        {
          "indexed": true,
          "internalType": "address",
          "name": "recipient",
          "type": "address"
        },
        {
          "indexed": false,
          "internalType": "uint256",
          "name": "rewardTokenId",
          "type": "uint256"
        }
      ],
      "name": "RewardTokenIssued",
      "type": "event"
    },
    {
      "anonymous": false,
      "inputs": [
        {
          "indexed": true,
          "internalType": "address",
          "name": "from",
          "type": "address"
        },
        {
          "indexed": true,
          "internalType": "address",
          "name": "to",
          "type": "address"
        },
        {
          "indexed": true,
          "internalType": "uint256",
          "name": "tokenId",
          "type": "uint256"
        }
      ],
      "name": "Transfer",
      "type": "event"
    },
    {
      "inputs": [
        {
          "internalType": "address",
          "name": "to",
          "type": "address"
        },
        {
          "internalType": "uint256",
          "name": "tokenId",
          "type": "uint256"
        }
      ],
      "name": "approve",
      "outputs": [],
      "stateMutability": "nonpayable",
      "type": "function"
    },
    {
      "inputs": [
        {
          "internalType": "address",
          "name": "owner",
          "type": "address"
        }
      ],
      "name": "balanceOf",
      "outputs": [
        {
          "internalType": "uint256",
          "name": "",
          "type": "uint256"
        }
      ],
      "stateMutability": "view",
      "type": "function"
    },
    {
      "inputs": [
        {
          "internalType": "uint256",
          "name": "tokenId",
          "type": "uint256"
        }
      ],
      "name": "buyNFT",
      "outputs": [],
      "stateMutability": "payable",
      "type": "function"
    },
    {
      "inputs": [
        {
          "internalType": "address",
          "name": "user",
          "type": "address"
        }
      ],
      "name": "checkEligibility",
      "outputs": [
        {
          "internalType": "bool",
          "name": "",
          "type": "bool"
        }
      ],
      "stateMutability": "view",
      "type": "function"
    },
    {
      "inputs": [],
      "name": "claimToken",
      "outputs": [],
      "stateMutability": "nonpayable",
      "type": "function"
    },
    {
      "inputs": [
        {
          "internalType": "string",
          "name": "_tokenURI",
          "type": "string"
        },
        {
          "internalType": "uint256",
          "name": "price",
          "type": "uint256"
        }
      ],
      "name": "createNFT",
      "outputs": [
        {
          "internalType": "uint256",
          "name": "",
          "type": "uint256"
        }
      ],
      "stateMutability": "payable",
      "type": "function"
    },
    {
      "inputs": [
        {
          "internalType": "address payable",
          "name": "campaignOwner",
          "type": "address"
        }
      ],
      "name": "fundCampaign",
      "outputs": [],
      "stateMutability": "payable",
      "type": "function"
    },
    {
      "inputs": [
        {
          "internalType": "uint256",
          "name": "tokenId",
          "type": "uint256"
        }
      ],
      "name": "getApproved",
      "outputs": [
        {
          "internalType": "address",
          "name": "",
          "type": "address"
        }
      ],
      "stateMutability": "view",
      "type": "function"
    },
    {
      "inputs": [
        {
          "internalType": "uint256",
          "name": "tokenId",
          "type": "uint256"
        }
      ],
      "name": "getNFTDetails",
      "outputs": [
        {
          "internalType": "string",
          "name": "",
          "type": "string"
        },
        {
          "internalType": "uint256",
          "name": "",
          "type": "uint256"
        },
        {
          "internalType": "address",
          "name": "",
          "type": "address"
        },
        {
          "internalType": "bool",
          "name": "",
          "type": "bool"
        }
      ],
      "stateMutability": "view",
      "type": "function"
    },
    {
      "inputs": [
        {
          "internalType": "address",
          "name": "",
          "type": "address"
        }
      ],
      "name": "hasReceivedToken",
      "outputs": [
        {
          "internalType": "bool",
          "name": "",
          "type": "bool"
        }
      ],
      "stateMutability": "view",
      "type": "function"
    },
    {
      "inputs": [
        {
          "internalType": "address",
          "name": "owner",
          "type": "address"
        },
        {
          "internalType": "address",
          "name": "operator",
          "type": "address"
        }
      ],
      "name": "isApprovedForAll",
      "outputs": [
        {
          "internalType": "bool",
          "name": "",
          "type": "bool"
        }
      ],
      "stateMutability": "view",
      "type": "function"
    },
    {
      "inputs": [],
      "name": "name",
      "outputs": [
        {
          "internalType": "string",
          "name": "",
          "type": "string"
        }
      ],
      "stateMutability": "view",
      "type": "function"
    },
    {
      "inputs": [],
      "name": "nftThreshold",
      "outputs": [
        {
          "internalType": "uint256",
          "name": "",
          "type": "uint256"
        }
      ],
      "stateMutability": "view",
      "type": "function"
    },
    {
      "inputs": [
        {
          "internalType": "uint256",
          "name": "",
          "type": "uint256"
        }
      ],
      "name": "nfts",
      "outputs": [
        {
          "internalType": "uint256",
          "name": "id",
          "type": "uint256"
        },
        {
          "internalType": "address payable",
          "name": "owner",
          "type": "address"
        },
        {
          "internalType": "uint256",
          "name": "price",
          "type": "uint256"
        },
        {
          "internalType": "bool",
          "name": "forSale",
          "type": "bool"
        }
      ],
      "stateMutability": "view",
      "type": "function"
    },
    {
      "inputs": [],
      "name": "owner",
      "outputs": [
        {
          "internalType": "address",
          "name": "",
          "type": "address"
        }
      ],
      "stateMutability": "view",
      "type": "function"
    },
    {
      "inputs": [
        {
          "internalType": "uint256",
          "name": "tokenId",
          "type": "uint256"
        }
      ],
      "name": "ownerOf",
      "outputs": [
        {
          "internalType": "address",
          "name": "",
          "type": "address"
        }
      ],
      "stateMutability": "view",
      "type": "function"
    },
    {
      "inputs": [],
      "name": "renounceOwnership",
      "outputs": [],
      "stateMutability": "nonpayable",
      "type": "function"
    },
    {
      "inputs": [],
      "name": "rewardTokenCounter",
      "outputs": [
        {
          "internalType": "uint256",
          "name": "",
          "type": "uint256"
        }
      ],
      "stateMutability": "view",
      "type": "function"
    },
    {
      "inputs": [
        {
          "internalType": "address",
          "name": "from",
          "type": "address"
        },
        {
          "internalType": "address",
          "name": "to",
          "type": "address"
        },
        {
          "internalType": "uint256",
          "name": "tokenId",
          "type": "uint256"
        }
      ],
      "name": "safeTransferFrom",
      "outputs": [],
      "stateMutability": "nonpayable",
      "type": "function"
    },
    {
      "inputs": [
        {
          "internalType": "address",
          "name": "from",
          "type": "address"
        },
        {
          "internalType": "address",
          "name": "to",
          "type": "address"
        },
        {
          "internalType": "uint256",
          "name": "tokenId",
          "type": "uint256"
        },
        {
          "internalType": "bytes",
          "name": "data",
          "type": "bytes"
        }
      ],
      "name": "safeTransferFrom",
      "outputs": [],
      "stateMutability": "nonpayable",
      "type": "function"
    },
    {
      "inputs": [
        {
          "internalType": "address",
          "name": "operator",
          "type": "address"
        },
        {
          "internalType": "bool",
          "name": "approved",
          "type": "bool"
        }
      ],
      "name": "setApprovalForAll",
      "outputs": [],
      "stateMutability": "nonpayable",
      "type": "function"
    },
    {
      "inputs": [
        {
          "internalType": "uint256",
          "name": "tokenId",
          "type": "uint256"
        },
        {
          "internalType": "uint256",
          "name": "price",
          "type": "uint256"
        }
      ],
      "name": "setForSale",
      "outputs": [],
      "stateMutability": "nonpayable",
      "type": "function"
    },
    {
      "inputs": [
        {
          "internalType": "bytes4",
          "name": "interfaceId",
          "type": "bytes4"
        }
      ],
      "name": "supportsInterface",
      "outputs": [
        {
          "internalType": "bool",
          "name": "",
          "type": "bool"
        }
      ],
      "stateMutability": "view",
      "type": "function"
    },
    {
      "inputs": [],
      "name": "symbol",
      "outputs": [
        {
          "internalType": "string",
          "name": "",
          "type": "string"
        }
      ],
      "stateMutability": "view",
      "type": "function"
    },
    {
      "inputs": [],
      "name": "tokenCounter",
      "outputs": [
        {
          "internalType": "uint256",
          "name": "",
          "type": "uint256"
        }
      ],
      "stateMutability": "view",
      "type": "function"
    },
    {
      "inputs": [
        {
          "internalType": "uint256",
          "name": "tokenId",
          "type": "uint256"
        }
      ],
      "name": "tokenURI",
      "outputs": [
        {
          "internalType": "string",
          "name": "",
          "type": "string"
        }
      ],
      "stateMutability": "view",
      "type": "function"
    },
    {
      "inputs": [
        {
          "internalType": "address",
          "name": "from",
          "type": "address"
        },
        {
          "internalType": "address",
          "name": "to",
          "type": "address"
        },
        {
          "internalType": "uint256",
          "name": "tokenId",
          "type": "uint256"
        }
      ],
      "name": "transferFrom",
      "outputs": [],
      "stateMutability": "nonpayable",
      "type": "function"
    },
    {
      "inputs": [
        {
          "internalType": "address",
          "name": "newOwner",
          "type": "address"
        }
      ],
      "name": "transferOwnership",
      "outputs": [],
      "stateMutability": "nonpayable",
      "type": "function"
    },
    {
      "inputs": [
        {
          "internalType": "address",
          "name": "",
          "type": "address"
        }
      ],
      "name": "userNFTCount",
      "outputs": [
        {
          "internalType": "uint256",
          "name": "",
          "type": "uint256"
        }
      ],
      "stateMutability": "view",
      "type": "function"
    },
    {
      "inputs": [],
      "name": "withdrawFunds",
      "outputs": [],
      "stateMutability": "nonpayable",
      "type": "function"
    },
    {
      "stateMutability": "payable",
      "type": "receive"
    }
  ],
  "bytecode": "0x60806040523480156200001157600080fd5b50336040518060400160405280600a81526020017f46756e646966794e4654000000000000000000000000000000000000000000008152506040518060400160405280600781526020017f46554e444e465400000000000000000000000000000000000000000000000000815250816000908162000090919062000483565b508060019081620000a2919062000483565b505050600073ffffffffffffffffffffffffffffffffffffffff168173ffffffffffffffffffffffffffffffffffffffff16036200011a5760006040517f1e4fbdf7000000000000000000000000000000000000000000000000000000008152600401620001119190620005af565b60405180910390fd5b6200012b816200014360201b60201c565b506000600881905550612710600981905550620005cc565b6000600760009054906101000a900473ffffffffffffffffffffffffffffffffffffffff16905081600760006101000a81548173ffffffffffffffffffffffffffffffffffffffff021916908373ffffffffffffffffffffffffffffffffffffffff1602179055508173ffffffffffffffffffffffffffffffffffffffff168173ffffffffffffffffffffffffffffffffffffffff167f8be0079c531659141344cd1fd0a4f28419497f9722a3daafe3b4186f6b6457e060405160405180910390a35050565b600081519050919050565b7f4e487b7100000000000000000000000000000000000000000000000000000000600052604160045260246000fd5b7f4e487b7100000000000000000000000000000000000000000000000000000000600052602260045260246000fd5b600060028204905060018216806200028b57607f821691505b602082108103620002a157620002a062000243565b5b50919050565b60008190508160005260206000209050919050565b60006020601f8301049050919050565b600082821b905092915050565b6000600883026200030b7fffffffffffffffffffffffffffffffffffffffffffffffffffffffffffffffff82620002cc565b620003178683620002cc565b95508019841693508086168417925050509392505050565b6000819050919050565b6000819050919050565b6000620003646200035e62000358846200032f565b62000339565b6200032f565b9050919050565b6000819050919050565b620003808362000343565b620003986200038f826200036b565b848454620002d9565b825550505050565b600090565b620003af620003a0565b620003bc81848462000375565b505050565b5b81811015620003e457620003d8600082620003a5565b600181019050620003c2565b5050565b601f8211156200043357620003fd81620002a7565b6200040884620002bc565b8101602085101562000418578190505b620004306200042785620002bc565b830182620003c1565b50505b505050565b600082821c905092915050565b6000620004586000198460080262000438565b1980831691505092915050565b600062000473838362000445565b9150826002028217905092915050565b6200048e8262000209565b67ffffffffffffffff811115620004aa57620004a962000214565b5b620004b6825462000272565b620004c3828285620003e8565b600060209050601f831160018114620004fb5760008415620004e6578287015190505b620004f2858262000465565b86555062000562565b601f1984166200050b86620002a7565b60005b8281101562000535578489015182556001820191506020850194506020810190506200050e565b8683101562000555578489015162000551601f89168262000445565b8355505b6001600288020188555050505b505050505050565b600073ffffffffffffffffffffffffffffffffffffffff82169050919050565b600062000597826200056a565b9050919050565b620005a9816200058a565b82525050565b6000602082019050620005c660008301846200059e565b92915050565b613c9180620005dc6000396000f3fe6080604052600436106101d15760003560e01c8063715018a6116100f757806395d89b4111610095578063c87b56dd11610064578063c87b56dd14610682578063d082e381146106bf578063e985e9c5146106ea578063f2fde38b14610727576101d8565b806395d89b41146105da578063a22cb46514610605578063b0e6bc001461062e578063b88d4fde14610659576101d8565b806382260f35116100d157806382260f3514610507578063833992c6146105475780638da5cb5b1461058457806393fcfe61146105af576101d8565b8063715018a61461047657806373a6f6a61461048d5780637723bafb146104ca576101d8565b8063265aa6211161016f57806351ed82881161013e57806351ed8288146103c45780636352211e146103e05780636682717e1461041d57806370a0823114610439576101d8565b8063265aa62114610314578063268291551461035457806342842e0e146103845780634451d89f146103ad576101d8565b8063095ea7b3116101ab578063095ea7b31461028257806317fcfe22146102ab57806323b872dd146102d457806324600fc3146102fd576101d8565b806301ffc9a7146101dd57806306fdde031461021a578063081812fc14610245576101d8565b366101d857005b600080fd5b3480156101e957600080fd5b5061020460048036038101906101ff9190612b30565b610750565b6040516102119190612b78565b60405180910390f35b34801561022657600080fd5b5061022f6107b1565b60405161023c9190612c23565b60405180910390f35b34801561025157600080fd5b5061026c60048036038101906102679190612c7b565b610843565b6040516102799190612ce9565b60405180910390f35b34801561028e57600080fd5b506102a960048036038101906102a49190612d30565b61085f565b005b3480156102b757600080fd5b506102d260048036038101906102cd9190612d70565b610875565b005b3480156102e057600080fd5b506102fb60048036038101906102f69190612db0565b610970565b005b34801561030957600080fd5b50610312610a72565b005b34801561032057600080fd5b5061033b60048036038101906103369190612c7b565b610aca565b60405161034b9493929190612e33565b60405180910390f35b61036e60048036038101906103699190612fad565b610b27565b60405161037b9190613009565b60405180910390f35b34801561039057600080fd5b506103ab60048036038101906103a69190612db0565b610cc4565b005b3480156103b957600080fd5b506103c2610ce4565b005b6103de60048036038101906103d99190612c7b565b610f05565b005b3480156103ec57600080fd5b5061040760048036038101906104029190612c7b565b611223565b6040516104149190612ce9565b60405180910390f35b61043760048036038101906104329190613050565b611235565b005b34801561044557600080fd5b50610460600480360381019061045b919061307d565b611396565b60405161046d9190613009565b60405180910390f35b34801561048257600080fd5b5061048b611450565b005b34801561049957600080fd5b506104b460048036038101906104af919061307d565b611464565b6040516104c19190612b78565b60405180910390f35b3480156104d657600080fd5b506104f160048036038101906104ec919061307d565b611484565b6040516104fe9190612b78565b60405180910390f35b34801561051357600080fd5b5061052e60048036038101906105299190612c7b565b611527565b60405161053e94939291906130aa565b60405180910390f35b34801561055357600080fd5b5061056e6004803603810190610569919061307d565b611599565b60405161057b9190613009565b60405180910390f35b34801561059057600080fd5b506105996115b1565b6040516105a69190612ce9565b60405180910390f35b3480156105bb57600080fd5b506105c46115db565b6040516105d19190613009565b60405180910390f35b3480156105e657600080fd5b506105ef6115e1565b6040516105fc9190612c23565b60405180910390f35b34801561061157600080fd5b5061062c60048036038101906106279190613122565b611673565b005b34801561063a57600080fd5b50610643611689565b6040516106509190613009565b60405180910390f35b34801561066557600080fd5b50610680600480360381019061067b9190613203565b61168e565b005b34801561068e57600080fd5b506106a960048036038101906106a49190612c7b565b6116b3565b6040516106b69190612c23565b60405180910390f35b3480156106cb57600080fd5b506106d46117c6565b6040516106e19190613009565b60405180910390f35b3480156106f657600080fd5b50610711600480360381019061070c9190613286565b6117cc565b60405161071e9190612b78565b60405180910390f35b34801561073357600080fd5b5061074e6004803603810190610749919061307d565b611860565b005b6000634906490660e01b7bffffffffffffffffffffffffffffffffffffffffffffffffffffffff1916827bffffffffffffffffffffffffffffffffffffffffffffffffffffffff191614806107aa57506107a9826118e6565b5b9050919050565b6060600080546107c0906132f5565b80601f01602080910402602001604051908101604052809291908181526020018280546107ec906132f5565b80156108395780601f1061080e57610100808354040283529160200191610839565b820191906000526020600020905b81548152906001019060200180831161081c57829003601f168201915b5050505050905090565b600061084e826119c8565b5061085882611a50565b9050919050565b610871828261086c611a8d565b611a95565b5050565b3373ffffffffffffffffffffffffffffffffffffffff1661089583611223565b73ffffffffffffffffffffffffffffffffffffffff16146108eb576040517f08c379a00000000000000000000000000000000000000000000000000000000081526004016108e290613372565b60405180910390fd5b6000811161092e576040517f08c379a0000000000000000000000000000000000000000000000000000000008152600401610925906133de565b60405180910390fd5b6000600a6000848152602001908152602001600020905060018160030160006101000a81548160ff021916908315150217905550818160020181905550505050565b600073ffffffffffffffffffffffffffffffffffffffff168273ffffffffffffffffffffffffffffffffffffffff16036109e25760006040517f64a0ae920000000000000000000000000000000000000000000000000000000081526004016109d99190612ce9565b60405180910390fd5b60006109f683836109f1611a8d565b611aa7565b90508373ffffffffffffffffffffffffffffffffffffffff168173ffffffffffffffffffffffffffffffffffffffff1614610a6c578382826040517f64283d7b000000000000000000000000000000000000000000000000000000008152600401610a63939291906133fe565b60405180910390fd5b50505050565b610a7a611cc1565b610a826115b1565b73ffffffffffffffffffffffffffffffffffffffff166108fc479081150290604051600060405180830381858888f19350505050158015610ac7573d6000803e3d6000fd5b50565b600a6020528060005260406000206000915090508060000154908060010160009054906101000a900473ffffffffffffffffffffffffffffffffffffffff16908060020154908060030160009054906101000a900460ff16905084565b6000808211610b6b576040517f08c379a0000000000000000000000000000000000000000000000000000000008152600401610b62906133de565b60405180910390fd5b60006008549050610b7c3382611d48565b610b868185611d66565b60405180608001604052808281526020013373ffffffffffffffffffffffffffffffffffffffff16815260200184815260200160011515815250600a60008381526020019081526020016000206000820151816000015560208201518160010160006101000a81548173ffffffffffffffffffffffffffffffffffffffff021916908373ffffffffffffffffffffffffffffffffffffffff1602179055506040820151816002015560608201518160030160006101000a81548160ff021916908315150217905550905050803373ffffffffffffffffffffffffffffffffffffffff167fdfa0e3fff180f76668d6008528604992d9e40575b994cf7e2fee128258c4dbe88686604051610c9a929190613435565b60405180910390a360086000815480929190610cb590613494565b91905055508091505092915050565b610cdf8383836040518060200160405280600081525061168e565b505050565b6003600b60003373ffffffffffffffffffffffffffffffffffffffff1673ffffffffffffffffffffffffffffffffffffffff168152602001908152602001600020541015610d67576040517f08c379a0000000000000000000000000000000000000000000000000000000008152600401610d5e9061354e565b60405180910390fd5b600c60003373ffffffffffffffffffffffffffffffffffffffff1673ffffffffffffffffffffffffffffffffffffffff16815260200190815260200160002060009054906101000a900460ff1615610df4576040517f08c379a0000000000000000000000000000000000000000000000000000000008152600401610deb906135e0565b60405180910390fd5b60006009549050610e053382611d48565b610e44816040518060400160405280601781526020017f556e697175652052657761726420546f6b656e20555249000000000000000000815250611d66565b6001600c60003373ffffffffffffffffffffffffffffffffffffffff1673ffffffffffffffffffffffffffffffffffffffff16815260200190815260200160002060006101000a81548160ff0219169083151502179055503373ffffffffffffffffffffffffffffffffffffffff167fed86886c0ba7eba93e29cf28aff89d90544d873d2419334e296a7693f38fd27f82604051610ee29190613009565b60405180910390a260096000815480929190610efd90613494565b919050555050565b6000600a600083815260200190815260200160002090508060030160009054906101000a900460ff16610f6d576040517f08c379a0000000000000000000000000000000000000000000000000000000008152600401610f649061364c565b60405180910390fd5b8060020154341015610fb4576040517f08c379a0000000000000000000000000000000000000000000000000000000008152600401610fab906136b8565b60405180910390fd5b3373ffffffffffffffffffffffffffffffffffffffff168160010160009054906101000a900473ffffffffffffffffffffffffffffffffffffffff1673ffffffffffffffffffffffffffffffffffffffff1603611046576040517f08c379a000000000000000000000000000000000000000000000000000000000815260040161103d90613724565b60405180910390fd5b8060010160009054906101000a900473ffffffffffffffffffffffffffffffffffffffff1673ffffffffffffffffffffffffffffffffffffffff166108fc349081150290604051600060405180830381858888f193505050501580156110b0573d6000803e3d6000fd5b506110e08160010160009054906101000a900473ffffffffffffffffffffffffffffffffffffffff163384611dc2565b338160010160006101000a81548173ffffffffffffffffffffffffffffffffffffffff021916908373ffffffffffffffffffffffffffffffffffffffff16021790555060008160030160006101000a81548160ff021916908315150217905550600b60003373ffffffffffffffffffffffffffffffffffffffff1673ffffffffffffffffffffffffffffffffffffffff168152602001908152602001600020600081548092919061119090613494565b9190505550813373ffffffffffffffffffffffffffffffffffffffff168260010160009054906101000a900473ffffffffffffffffffffffffffffffffffffffff1673ffffffffffffffffffffffffffffffffffffffff167f84a34755616a04d6e547597ec5933d7ca8cf181bb354026be7e93e147edf0ab7346040516112179190613009565b60405180910390a45050565b600061122e826119c8565b9050919050565b60003411611278576040517f08c379a000000000000000000000000000000000000000000000000000000000815260040161126f906137b6565b60405180910390fd5b600073ffffffffffffffffffffffffffffffffffffffff168173ffffffffffffffffffffffffffffffffffffffff16036112e7576040517f08c379a00000000000000000000000000000000000000000000000000000000081526004016112de90613822565b60405180910390fd5b8073ffffffffffffffffffffffffffffffffffffffff166108fc349081150290604051600060405180830381858888f1935050505015801561132d573d6000803e3d6000fd5b503373ffffffffffffffffffffffffffffffffffffffff168173ffffffffffffffffffffffffffffffffffffffff167f31dfdd0cdbba4daad7dbdc3bee4f31a7843784462febd6b9a72a11b282c41ef93460405161138b9190613009565b60405180910390a350565b60008073ffffffffffffffffffffffffffffffffffffffff168273ffffffffffffffffffffffffffffffffffffffff16036114095760006040517f89c62b640000000000000000000000000000000000000000000000000000000081526004016114009190612ce9565b60405180910390fd5b600360008373ffffffffffffffffffffffffffffffffffffffff1673ffffffffffffffffffffffffffffffffffffffff168152602001908152602001600020549050919050565b611458611cc1565b6114626000611f2f565b565b600c6020528060005260406000206000915054906101000a900460ff1681565b60006003600b60008473ffffffffffffffffffffffffffffffffffffffff1673ffffffffffffffffffffffffffffffffffffffff16815260200190815260200160002054101580156115205750600c60008373ffffffffffffffffffffffffffffffffffffffff1673ffffffffffffffffffffffffffffffffffffffff16815260200190815260200160002060009054906101000a900460ff16155b9050919050565b6060600080600080600a6000878152602001908152602001600020905061154d866116b3565b81600201548260010160009054906101000a900473ffffffffffffffffffffffffffffffffffffffff168360030160009054906101000a900460ff169450945094509450509193509193565b600b6020528060005260406000206000915090505481565b6000600760009054906101000a900473ffffffffffffffffffffffffffffffffffffffff16905090565b60095481565b6060600180546115f0906132f5565b80601f016020809104026020016040519081016040528092919081815260200182805461161c906132f5565b80156116695780601f1061163e57610100808354040283529160200191611669565b820191906000526020600020905b81548152906001019060200180831161164c57829003601f168201915b5050505050905090565b61168561167e611a8d565b8383611ff5565b5050565b600381565b611699848484610970565b6116ad6116a4611a8d565b85858585612164565b50505050565b60606116be826119c8565b5060006006600084815260200190815260200160002080546116df906132f5565b80601f016020809104026020016040519081016040528092919081815260200182805461170b906132f5565b80156117585780601f1061172d57610100808354040283529160200191611758565b820191906000526020600020905b81548152906001019060200180831161173b57829003601f168201915b505050505090506000611769612315565b9050600081510361177e5781925050506117c1565b6000825111156117b357808260405160200161179b92919061387e565b604051602081830303815290604052925050506117c1565b6117bc8461232c565b925050505b919050565b60085481565b6000600560008473ffffffffffffffffffffffffffffffffffffffff1673ffffffffffffffffffffffffffffffffffffffff16815260200190815260200160002060008373ffffffffffffffffffffffffffffffffffffffff1673ffffffffffffffffffffffffffffffffffffffff16815260200190815260200160002060009054906101000a900460ff16905092915050565b611868611cc1565b600073ffffffffffffffffffffffffffffffffffffffff168173ffffffffffffffffffffffffffffffffffffffff16036118da5760006040517f1e4fbdf70000000000000000000000000000000000000000000000000000000081526004016118d19190612ce9565b60405180910390fd5b6118e381611f2f565b50565b60007f80ac58cd000000000000000000000000000000000000000000000000000000007bffffffffffffffffffffffffffffffffffffffffffffffffffffffff1916827bffffffffffffffffffffffffffffffffffffffffffffffffffffffff191614806119b157507f5b5e139f000000000000000000000000000000000000000000000000000000007bffffffffffffffffffffffffffffffffffffffffffffffffffffffff1916827bffffffffffffffffffffffffffffffffffffffffffffffffffffffff1916145b806119c157506119c082612395565b5b9050919050565b6000806119d4836123ff565b9050600073ffffffffffffffffffffffffffffffffffffffff168173ffffffffffffffffffffffffffffffffffffffff1603611a4757826040517f7e273289000000000000000000000000000000000000000000000000000000008152600401611a3e9190613009565b60405180910390fd5b80915050919050565b60006004600083815260200190815260200160002060009054906101000a900473ffffffffffffffffffffffffffffffffffffffff169050919050565b600033905090565b611aa2838383600161243c565b505050565b600080611ab3846123ff565b9050600073ffffffffffffffffffffffffffffffffffffffff168373ffffffffffffffffffffffffffffffffffffffff1614611af557611af4818486612601565b5b600073ffffffffffffffffffffffffffffffffffffffff168173ffffffffffffffffffffffffffffffffffffffff1614611b8657611b3760008560008061243c565b6001600360008373ffffffffffffffffffffffffffffffffffffffff1673ffffffffffffffffffffffffffffffffffffffff168152602001908152602001600020600082825403925050819055505b600073ffffffffffffffffffffffffffffffffffffffff168573ffffffffffffffffffffffffffffffffffffffff1614611c09576001600360008773ffffffffffffffffffffffffffffffffffffffff1673ffffffffffffffffffffffffffffffffffffffff168152602001908152602001600020600082825401925050819055505b846002600086815260200190815260200160002060006101000a81548173ffffffffffffffffffffffffffffffffffffffff021916908373ffffffffffffffffffffffffffffffffffffffff160217905550838573ffffffffffffffffffffffffffffffffffffffff168273ffffffffffffffffffffffffffffffffffffffff167fddf252ad1be2c89b69c2b068fc378daa952ba7f163c4a11628f55a4df523b3ef60405160405180910390a4809150509392505050565b611cc9611a8d565b73ffffffffffffffffffffffffffffffffffffffff16611ce76115b1565b73ffffffffffffffffffffffffffffffffffffffff1614611d4657611d0a611a8d565b6040517f118cdaa7000000000000000000000000000000000000000000000000000000008152600401611d3d9190612ce9565b60405180910390fd5b565b611d628282604051806020016040528060008152506126c5565b5050565b80600660008481526020019081526020016000209081611d869190613a4e565b507ff8e1a15aba9398e019f0b49df1a4fde98ee17ae345cb5f6b5e2c27f5033e8ce782604051611db69190613009565b60405180910390a15050565b600073ffffffffffffffffffffffffffffffffffffffff168273ffffffffffffffffffffffffffffffffffffffff1603611e345760006040517f64a0ae92000000000000000000000000000000000000000000000000000000008152600401611e2b9190612ce9565b60405180910390fd5b6000611e4283836000611aa7565b9050600073ffffffffffffffffffffffffffffffffffffffff168173ffffffffffffffffffffffffffffffffffffffff1603611eb557816040517f7e273289000000000000000000000000000000000000000000000000000000008152600401611eac9190613009565b60405180910390fd5b8373ffffffffffffffffffffffffffffffffffffffff168173ffffffffffffffffffffffffffffffffffffffff1614611f29578382826040517f64283d7b000000000000000000000000000000000000000000000000000000008152600401611f20939291906133fe565b60405180910390fd5b50505050565b6000600760009054906101000a900473ffffffffffffffffffffffffffffffffffffffff16905081600760006101000a81548173ffffffffffffffffffffffffffffffffffffffff021916908373ffffffffffffffffffffffffffffffffffffffff1602179055508173ffffffffffffffffffffffffffffffffffffffff168173ffffffffffffffffffffffffffffffffffffffff167f8be0079c531659141344cd1fd0a4f28419497f9722a3daafe3b4186f6b6457e060405160405180910390a35050565b600073ffffffffffffffffffffffffffffffffffffffff168273ffffffffffffffffffffffffffffffffffffffff160361206657816040517f5b08ba1800000000000000000000000000000000000000000000000000000000815260040161205d9190612ce9565b60405180910390fd5b80600560008573ffffffffffffffffffffffffffffffffffffffff1673ffffffffffffffffffffffffffffffffffffffff16815260200190815260200160002060008473ffffffffffffffffffffffffffffffffffffffff1673ffffffffffffffffffffffffffffffffffffffff16815260200190815260200160002060006101000a81548160ff0219169083151502179055508173ffffffffffffffffffffffffffffffffffffffff168373ffffffffffffffffffffffffffffffffffffffff167f17307eab39ab6107e8899845ad3d59bd9653f200f220920489ca2b5937696c31836040516121579190612b78565b60405180910390a3505050565b60008373ffffffffffffffffffffffffffffffffffffffff163b111561230e578273ffffffffffffffffffffffffffffffffffffffff1663150b7a02868685856040518563ffffffff1660e01b81526004016121c39493929190613b75565b6020604051808303816000875af19250505080156121ff57506040513d601f19601f820116820180604052508101906121fc9190613bd6565b60015b612283573d806000811461222f576040519150601f19603f3d011682016040523d82523d6000602084013e612234565b606091505b50600081510361227b57836040517f64a0ae920000000000000000000000000000000000000000000000000000000081526004016122729190612ce9565b60405180910390fd5b805181602001fd5b63150b7a0260e01b7bffffffffffffffffffffffffffffffffffffffffffffffffffffffff1916817bffffffffffffffffffffffffffffffffffffffffffffffffffffffff19161461230c57836040517f64a0ae920000000000000000000000000000000000000000000000000000000081526004016123039190612ce9565b60405180910390fd5b505b5050505050565b606060405180602001604052806000815250905090565b6060612337826119c8565b506000612342612315565b90506000815111612362576040518060200160405280600081525061238d565b8061236c846126e9565b60405160200161237d92919061387e565b6040516020818303038152906040525b915050919050565b60007f01ffc9a7000000000000000000000000000000000000000000000000000000007bffffffffffffffffffffffffffffffffffffffffffffffffffffffff1916827bffffffffffffffffffffffffffffffffffffffffffffffffffffffff1916149050919050565b60006002600083815260200190815260200160002060009054906101000a900473ffffffffffffffffffffffffffffffffffffffff169050919050565b80806124755750600073ffffffffffffffffffffffffffffffffffffffff168273ffffffffffffffffffffffffffffffffffffffff1614155b156125a9576000612485846119c8565b9050600073ffffffffffffffffffffffffffffffffffffffff168373ffffffffffffffffffffffffffffffffffffffff16141580156124f057508273ffffffffffffffffffffffffffffffffffffffff168173ffffffffffffffffffffffffffffffffffffffff1614155b8015612503575061250181846117cc565b155b1561254557826040517fa9fbf51f00000000000000000000000000000000000000000000000000000000815260040161253c9190612ce9565b60405180910390fd5b81156125a757838573ffffffffffffffffffffffffffffffffffffffff168273ffffffffffffffffffffffffffffffffffffffff167f8c5be1e5ebec7d5bd14f71427d1e84f3dd0314c0f7b2291e5b200ac8c7c3b92560405160405180910390a45b505b836004600085815260200190815260200160002060006101000a81548173ffffffffffffffffffffffffffffffffffffffff021916908373ffffffffffffffffffffffffffffffffffffffff16021790555050505050565b61260c8383836127b7565b6126c057600073ffffffffffffffffffffffffffffffffffffffff168373ffffffffffffffffffffffffffffffffffffffff160361268157806040517f7e2732890000000000000000000000000000000000000000000000000000000081526004016126789190613009565b60405180910390fd5b81816040517f177e802f0000000000000000000000000000000000000000000000000000000081526004016126b7929190613c03565b60405180910390fd5b505050565b6126cf8383612878565b6126e46126da611a8d565b6000858585612164565b505050565b6060600060016126f884612971565b01905060008167ffffffffffffffff81111561271757612716612e82565b5b6040519080825280601f01601f1916602001820160405280156127495781602001600182028036833780820191505090505b509050600082602001820190505b6001156127ac578080600190039150507f3031323334353637383961626364656600000000000000000000000000000000600a86061a8153600a85816127a05761279f613c2c565b5b04945060008503612757575b819350505050919050565b60008073ffffffffffffffffffffffffffffffffffffffff168373ffffffffffffffffffffffffffffffffffffffff161415801561286f57508273ffffffffffffffffffffffffffffffffffffffff168473ffffffffffffffffffffffffffffffffffffffff161480612830575061282f84846117cc565b5b8061286e57508273ffffffffffffffffffffffffffffffffffffffff1661285683611a50565b73ffffffffffffffffffffffffffffffffffffffff16145b5b90509392505050565b600073ffffffffffffffffffffffffffffffffffffffff168273ffffffffffffffffffffffffffffffffffffffff16036128ea5760006040517f64a0ae920000000000000000000000000000000000000000000000000000000081526004016128e19190612ce9565b60405180910390fd5b60006128f883836000611aa7565b9050600073ffffffffffffffffffffffffffffffffffffffff168173ffffffffffffffffffffffffffffffffffffffff161461296c5760006040517f73c6ac6e0000000000000000000000000000000000000000000000000000000081526004016129639190612ce9565b60405180910390fd5b505050565b600080600090507a184f03e93ff9f4daa797ed6e38ed64bf6a1f01000000000000000083106129cf577a184f03e93ff9f4daa797ed6e38ed64bf6a1f01000000000000000083816129c5576129c4613c2c565b5b0492506040810190505b6d04ee2d6d415b85acef81000000008310612a0c576d04ee2d6d415b85acef81000000008381612a0257612a01613c2c565b5b0492506020810190505b662386f26fc100008310612a3b57662386f26fc100008381612a3157612a30613c2c565b5b0492506010810190505b6305f5e1008310612a64576305f5e1008381612a5a57612a59613c2c565b5b0492506008810190505b6127108310612a89576127108381612a7f57612a7e613c2c565b5b0492506004810190505b60648310612aac5760648381612aa257612aa1613c2c565b5b0492506002810190505b600a8310612abb576001810190505b80915050919050565b6000604051905090565b600080fd5b600080fd5b60007fffffffff0000000000000000000000000000000000000000000000000000000082169050919050565b612b0d81612ad8565b8114612b1857600080fd5b50565b600081359050612b2a81612b04565b92915050565b600060208284031215612b4657612b45612ace565b5b6000612b5484828501612b1b565b91505092915050565b60008115159050919050565b612b7281612b5d565b82525050565b6000602082019050612b8d6000830184612b69565b92915050565b600081519050919050565b600082825260208201905092915050565b60005b83811015612bcd578082015181840152602081019050612bb2565b60008484015250505050565b6000601f19601f8301169050919050565b6000612bf582612b93565b612bff8185612b9e565b9350612c0f818560208601612baf565b612c1881612bd9565b840191505092915050565b60006020820190508181036000830152612c3d8184612bea565b905092915050565b6000819050919050565b612c5881612c45565b8114612c6357600080fd5b50565b600081359050612c7581612c4f565b92915050565b600060208284031215612c9157612c90612ace565b5b6000612c9f84828501612c66565b91505092915050565b600073ffffffffffffffffffffffffffffffffffffffff82169050919050565b6000612cd382612ca8565b9050919050565b612ce381612cc8565b82525050565b6000602082019050612cfe6000830184612cda565b92915050565b612d0d81612cc8565b8114612d1857600080fd5b50565b600081359050612d2a81612d04565b92915050565b60008060408385031215612d4757612d46612ace565b5b6000612d5585828601612d1b565b9250506020612d6685828601612c66565b9150509250929050565b60008060408385031215612d8757612d86612ace565b5b6000612d9585828601612c66565b9250506020612da685828601612c66565b9150509250929050565b600080600060608486031215612dc957612dc8612ace565b5b6000612dd786828701612d1b565b9350506020612de886828701612d1b565b9250506040612df986828701612c66565b9150509250925092565b612e0c81612c45565b82525050565b6000612e1d82612ca8565b9050919050565b612e2d81612e12565b82525050565b6000608082019050612e486000830187612e03565b612e556020830186612e24565b612e626040830185612e03565b612e6f6060830184612b69565b95945050505050565b600080fd5b600080fd5b7f4e487b7100000000000000000000000000000000000000000000000000000000600052604160045260246000fd5b612eba82612bd9565b810181811067ffffffffffffffff82111715612ed957612ed8612e82565b5b80604052505050565b6000612eec612ac4565b9050612ef88282612eb1565b919050565b600067ffffffffffffffff821115612f1857612f17612e82565b5b612f2182612bd9565b9050602081019050919050565b82818337600083830152505050565b6000612f50612f4b84612efd565b612ee2565b905082815260208101848484011115612f6c57612f6b612e7d565b5b612f77848285612f2e565b509392505050565b600082601f830112612f9457612f93612e78565b5b8135612fa4848260208601612f3d565b91505092915050565b60008060408385031215612fc457612fc3612ace565b5b600083013567ffffffffffffffff811115612fe257612fe1612ad3565b5b612fee85828601612f7f565b9250506020612fff85828601612c66565b9150509250929050565b600060208201905061301e6000830184612e03565b92915050565b61302d81612e12565b811461303857600080fd5b50565b60008135905061304a81613024565b92915050565b60006020828403121561306657613065612ace565b5b60006130748482850161303b565b91505092915050565b60006020828403121561309357613092612ace565b5b60006130a184828501612d1b565b91505092915050565b600060808201905081810360008301526130c48187612bea565b90506130d36020830186612e03565b6130e06040830185612cda565b6130ed6060830184612b69565b95945050505050565b6130ff81612b5d565b811461310a57600080fd5b50565b60008135905061311c816130f6565b92915050565b6000806040838503121561313957613138612ace565b5b600061314785828601612d1b565b92505060206131588582860161310d565b9150509250929050565b600067ffffffffffffffff82111561317d5761317c612e82565b5b61318682612bd9565b9050602081019050919050565b60006131a66131a184613162565b612ee2565b9050828152602081018484840111156131c2576131c1612e7d565b5b6131cd848285612f2e565b509392505050565b600082601f8301126131ea576131e9612e78565b5b81356131fa848260208601613193565b91505092915050565b6000806000806080858703121561321d5761321c612ace565b5b600061322b87828801612d1b565b945050602061323c87828801612d1b565b935050604061324d87828801612c66565b925050606085013567ffffffffffffffff81111561326e5761326d612ad3565b5b61327a878288016131d5565b91505092959194509250565b6000806040838503121561329d5761329c612ace565b5b60006132ab85828601612d1b565b92505060206132bc85828601612d1b565b9150509250929050565b7f4e487b7100000000000000000000000000000000000000000000000000000000600052602260045260246000fd5b6000600282049050600182168061330d57607f821691505b6020821081036133205761331f6132c6565b5b50919050565b7f4f6e6c79206f776e65722063616e2073656c6c00000000000000000000000000600082015250565b600061335c601383612b9e565b915061336782613326565b602082019050919050565b6000602082019050818103600083015261338b8161334f565b9050919050565b7f5072696365206d7573742062652067726561746572207468616e207a65726f00600082015250565b60006133c8601f83612b9e565b91506133d382613392565b602082019050919050565b600060208201905081810360008301526133f7816133bb565b9050919050565b60006060820190506134136000830186612cda565b6134206020830185612e03565b61342d6040830184612cda565b949350505050565b6000604082019050818103600083015261344f8185612bea565b905061345e6020830184612e03565b9392505050565b7f4e487b7100000000000000000000000000000000000000000000000000000000600052601160045260246000fd5b600061349f82612c45565b91507fffffffffffffffffffffffffffffffffffffffffffffffffffffffffffffffff82036134d1576134d0613465565b5b600182019050919050565b7f596f75206e656564206174206c656173742033204e46547320746f20636c616960008201527f6d00000000000000000000000000000000000000000000000000000000000000602082015250565b6000613538602183612b9e565b9150613543826134dc565b604082019050919050565b600060208201905081810360008301526135678161352b565b9050919050565b7f596f75206861766520616c726561647920636c61696d656420796f757220726560008201527f7761726420746f6b656e00000000000000000000000000000000000000000000602082015250565b60006135ca602a83612b9e565b91506135d58261356e565b604082019050919050565b600060208201905081810360008301526135f9816135bd565b9050919050565b7f4e4654206973206e6f7420666f722073616c6500000000000000000000000000600082015250565b6000613636601383612b9e565b915061364182613600565b602082019050919050565b6000602082019050818103600083015261366581613629565b9050919050565b7f496e73756666696369656e74207061796d656e74000000000000000000000000600082015250565b60006136a2601483612b9e565b91506136ad8261366c565b602082019050919050565b600060208201905081810360008301526136d181613695565b9050919050565b7f596f7520616c7265616479206f776e2074686973204e46540000000000000000600082015250565b600061370e601883612b9e565b9150613719826136d8565b602082019050919050565b6000602082019050818103600083015261373d81613701565b9050919050565b7f446f6e6174696f6e206d7573742062652067726561746572207468616e207a6560008201527f726f000000000000000000000000000000000000000000000000000000000000602082015250565b60006137a0602283612b9e565b91506137ab82613744565b604082019050919050565b600060208201905081810360008301526137cf81613793565b9050919050565b7f496e76616c69642063616d706169676e206f776e657220616464726573730000600082015250565b600061380c601e83612b9e565b9150613817826137d6565b602082019050919050565b6000602082019050818103600083015261383b816137ff565b9050919050565b600081905092915050565b600061385882612b93565b6138628185613842565b9350613872818560208601612baf565b80840191505092915050565b600061388a828561384d565b9150613896828461384d565b91508190509392505050565b60008190508160005260206000209050919050565b60006020601f8301049050919050565b600082821b905092915050565b6000600883026139047fffffffffffffffffffffffffffffffffffffffffffffffffffffffffffffffff826138c7565b61390e86836138c7565b95508019841693508086168417925050509392505050565b6000819050919050565b600061394b61394661394184612c45565b613926565b612c45565b9050919050565b6000819050919050565b61396583613930565b61397961397182613952565b8484546138d4565b825550505050565b600090565b61398e613981565b61399981848461395c565b505050565b5b818110156139bd576139b2600082613986565b60018101905061399f565b5050565b601f821115613a02576139d3816138a2565b6139dc846138b7565b810160208510156139eb578190505b6139ff6139f7856138b7565b83018261399e565b50505b505050565b600082821c905092915050565b6000613a2560001984600802613a07565b1980831691505092915050565b6000613a3e8383613a14565b9150826002028217905092915050565b613a5782612b93565b67ffffffffffffffff811115613a7057613a6f612e82565b5b613a7a82546132f5565b613a858282856139c1565b600060209050601f831160018114613ab85760008415613aa6578287015190505b613ab08582613a32565b865550613b18565b601f198416613ac6866138a2565b60005b82811015613aee57848901518255600182019150602085019450602081019050613ac9565b86831015613b0b5784890151613b07601f891682613a14565b8355505b6001600288020188555050505b505050505050565b600081519050919050565b600082825260208201905092915050565b6000613b4782613b20565b613b518185613b2b565b9350613b61818560208601612baf565b613b6a81612bd9565b840191505092915050565b6000608082019050613b8a6000830187612cda565b613b976020830186612cda565b613ba46040830185612e03565b8181036060830152613bb68184613b3c565b905095945050505050565b600081519050613bd081612b04565b92915050565b600060208284031215613bec57613beb612ace565b5b6000613bfa84828501613bc1565b91505092915050565b6000604082019050613c186000830185612cda565b613c256020830184612e03565b9392505050565b7f4e487b7100000000000000000000000000000000000000000000000000000000600052601260045260246000fdfea2646970667358221220699d9ecd18fc322ec5677652e9653013b559ca3c3581a0779231b26e844283af64736f6c63430008140033",
  "linkReferences": {},
  "deployedLinkReferences": {}
}